{
  "_format": "hh-sol-artifact-1",
  "contractName": "Assessment",
  "sourceName": "contracts/Assessment.sol",
  "abi": [
    {
      "inputs": [
        {
          "internalType": "uint256",
          "name": "initBalance",
          "type": "uint256"
        }
      ],
      "stateMutability": "payable",
      "type": "constructor"
    },
    {
      "inputs": [
        {
          "internalType": "uint256",
          "name": "balance",
          "type": "uint256"
        },
        {
          "internalType": "uint256",
          "name": "withdrawAmount",
          "type": "uint256"
        }
      ],
      "name": "InsufficientBalance",
      "type": "error"
    },
    {
      "anonymous": false,
      "inputs": [
        {
          "indexed": false,
          "internalType": "uint256",
          "name": "amount",
          "type": "uint256"
        }
      ],
      "name": "Deposit",
      "type": "event"
    },
    {
      "anonymous": false,
      "inputs": [
        {
          "indexed": false,
          "internalType": "uint256",
          "name": "amount",
          "type": "uint256"
        }
      ],
      "name": "Withdraw",
      "type": "event"
    },
    {
      "inputs": [],
      "name": "balance",
      "outputs": [
        {
          "internalType": "uint256",
          "name": "",
          "type": "uint256"
        }
      ],
      "stateMutability": "view",
      "type": "function"
    },
    {
      "inputs": [],
      "name": "checkOwner",
      "outputs": [
        {
          "internalType": "string",
          "name": "",
          "type": "string"
        }
      ],
      "stateMutability": "pure",
      "type": "function"
    },
    {
      "inputs": [
        {
          "internalType": "uint256",
          "name": "_amount",
          "type": "uint256"
        }
      ],
      "name": "deposit",
      "outputs": [],
      "stateMutability": "payable",
      "type": "function"
    },
    {
      "inputs": [],
      "name": "getBalance",
      "outputs": [
        {
          "internalType": "uint256",
          "name": "",
          "type": "uint256"
        }
      ],
      "stateMutability": "view",
      "type": "function"
    },
    {
      "inputs": [],
      "name": "owner",
      "outputs": [
        {
          "internalType": "address payable",
          "name": "",
          "type": "address"
        }
      ],
      "stateMutability": "view",
      "type": "function"
    },
    {
      "inputs": [
        {
          "internalType": "uint256",
          "name": "_withdrawAmount",
          "type": "uint256"
        }
      ],
      "name": "withdraw",
      "outputs": [],
      "stateMutability": "nonpayable",
      "type": "function"
    }
  ],
  "bytecode": "0x6080604052604051610859380380610859833981810160405281019061002591906100ad565b336000806101000a81548173ffffffffffffffffffffffffffffffffffffffff021916908373ffffffffffffffffffffffffffffffffffffffff16021790555080600181905550506100da565b600080fd5b6000819050919050565b61008a81610077565b811461009557600080fd5b50565b6000815190506100a781610081565b92915050565b6000602082840312156100c3576100c2610072565b5b60006100d184828501610098565b91505092915050565b610770806100e96000396000f3fe6080604052600436106100555760003560e01c806312065fe01461005a5780632e1a7d4d146100855780638da5cb5b146100ae578063b69ef8a8146100d9578063b6b55f2514610104578063cdbce03d14610120575b600080fd5b34801561006657600080fd5b5061006f61014b565b60405161007c9190610432565b60405180910390f35b34801561009157600080fd5b506100ac60048036038101906100a7919061047e565b610155565b005b3480156100ba57600080fd5b506100c36102a6565b6040516100d091906104ec565b60405180910390f35b3480156100e557600080fd5b506100ee6102ca565b6040516100fb9190610432565b60405180910390f35b61011e6004803603810190610119919061047e565b6102d0565b005b34801561012c57600080fd5b506101356103d6565b6040516101429190610597565b60405180910390f35b6000600154905090565b60008054906101000a900473ffffffffffffffffffffffffffffffffffffffff1673ffffffffffffffffffffffffffffffffffffffff163373ffffffffffffffffffffffffffffffffffffffff16146101e3576040517f08c379a00000000000000000000000000000000000000000000000000000000081526004016101da9061062b565b60405180910390fd5b6000600154905081600154101561023557600154826040517fcf47918100000000000000000000000000000000000000000000000000000000815260040161022c92919061064b565b60405180910390fd5b816001600082825461024791906106a3565b92505081905550818161025a91906106a3565b6001541461026b5761026a6106d7565b5b7f5b6b431d4476a211bb7d41c20d1aab9ae2321deee0d20be3d9fc9b1093fa6e3d8260405161029a9190610432565b60405180910390a15050565b60008054906101000a900473ffffffffffffffffffffffffffffffffffffffff1681565b60015481565b6000600154905060008054906101000a900473ffffffffffffffffffffffffffffffffffffffff1673ffffffffffffffffffffffffffffffffffffffff163373ffffffffffffffffffffffffffffffffffffffff1614610365576040517f08c379a000000000000000000000000000000000000000000000000000000000815260040161035c9061062b565b60405180910390fd5b81600160008282546103779190610706565b92505081905550818161038a9190610706565b6001541461039b5761039a6106d7565b5b7f4d6ce1e535dbade1c23defba91e23b8f791ce5edc0cc320257a2b364e4e38426826040516103ca9190610432565b60405180910390a15050565b606060006040518060400160405280600781526020017f5368756268616d0000000000000000000000000000000000000000000000000081525090508091505090565b6000819050919050565b61042c81610419565b82525050565b60006020820190506104476000830184610423565b92915050565b600080fd5b61045b81610419565b811461046657600080fd5b50565b60008135905061047881610452565b92915050565b6000602082840312156104945761049361044d565b5b60006104a284828501610469565b91505092915050565b600073ffffffffffffffffffffffffffffffffffffffff82169050919050565b60006104d6826104ab565b9050919050565b6104e6816104cb565b82525050565b600060208201905061050160008301846104dd565b92915050565b600081519050919050565b600082825260208201905092915050565b60005b83811015610541578082015181840152602081019050610526565b60008484015250505050565b6000601f19601f8301169050919050565b600061056982610507565b6105738185610512565b9350610583818560208601610523565b61058c8161054d565b840191505092915050565b600060208201905081810360008301526105b1818461055e565b905092915050565b7f596f7520617265206e6f7420746865206f776e6572206f66207468697320616360008201527f636f756e74000000000000000000000000000000000000000000000000000000602082015250565b6000610615602583610512565b9150610620826105b9565b604082019050919050565b6000602082019050818103600083015261064481610608565b9050919050565b60006040820190506106606000830185610423565b61066d6020830184610423565b9392505050565b7f4e487b7100000000000000000000000000000000000000000000000000000000600052601160045260246000fd5b60006106ae82610419565b91506106b983610419565b92508282039050818111156106d1576106d0610674565b5b92915050565b7f4e487b7100000000000000000000000000000000000000000000000000000000600052600160045260246000fd5b600061071182610419565b915061071c83610419565b925082820190508082111561073457610733610674565b5b9291505056fea2646970667358221220439658d2c807a97e5b50591f2adc0807228de17c1fb61408046d37d22043f6e264736f6c63430008110033",
  "linkReferences": {},
  "deployedLinkReferences": {}
}